:100000000C9437000C942B010C942B010C942B01B5
:100010000C942B010C942B010C942B010C942B01B0
:100020000C942B010C942B010C9491000C942B013B
:100030000C942B010C942B010C942B010C942B0190
:100040000C942B010C942B010C94BF000C942B01ED
:100050000C942B010C942B010C942B010C942B0170
:100060000C942B010C942B010100010B8000112436
:100070001FBECFEFD8E0DEBFCDBFE8E6F0E040E046
:1000800017C0B591A59135912591059107FD0CC03B
:1000900095918591EF01F92FE82F05900D92A21708
:1000A000B307D9F7FE0104C01D92A217B307E1F709
:1000B000ED36F40731F70E940D010C941901F89404
:0200C000FFCF70
:1000C200000000000000000000000000000000002E
:1000D20034040C2464442C6C4C28481800000000A2
:1000E20000040C2464442C6C4C281A141C347454E0
:1000F2003C7C5C3878949CE82CF4D400000000002E
:1001020000040C2464442C6C4C281A141C347454BF
:0F0112003C7C5C3878949CE82CF4D4000000000E
:100122001F920F920FB60F9211242F933F934F936A
:100132005F936F937F938F939F93AF93BF93EF934D
:10014200FF938EE60E9424012FEF80E792E0215078
:1001520080409040E1F700C00000FF91EF91BF9115
:10016200AF919F918F917F916F915F914F913F914D
:0C0172002F910F900FBE0F901F9018955A
:10017E001F920F920FB60F9211248F939F93AF93EE
:10018E00EF93FF938091C60080930A0190E08097D1
:10019E00092E000CAA0B8E539F4FAF4FFC0184917A
:1001AE00A7FD80818BB9FF91EF91AF919F918F91B8
:0A01BE000F900FBE0F901F901895D0
:1001C800F8940E94F90084B1806284B984B18C6F7C
:1001D80084B9E1E8F0E08081806C8083EFE6F0E0AC
:0A01E800808180628083789408957E
:1001F2001092C50087E68093C400E1ECF0E088E14C
:100202008083A2ECB0E086E08C938C9188608C9322
:0802120080818068808308955B
:10021A000E94E4002FEF83ED90E32150804090404C
:08022A00E1F700C00000FFCF66
:10023200EC010E9430010E942F01CE010E94310187
:06024200CE010E942D0117
:0E0248009091C00095FFFCCF8093C6000895F2
:040256000C94000004
:04025A000E945F009F
:02025E00089501
:020260000895FF
:020262000895FD
:00000001FF
