:100000000C943A000C94A6010C94A6010C94A60141
:100010000C94A6010C94A6010C94A6010C94A601C4
:100020000C94A6010C94A6010C9494000C94A601C7
:100030000C94A6010C94A6010C94A6010C94A601A4
:100040000C94A6010C94A6010C94EA000C94A60151
:100050000C94A6010C94A6010C94A6010C94A60184
:100060000C94A6010C94A6010100010B80010B0168
:100070001500035A11241FBECFEFD8E0DEBFCDBF5D
:10008000E8E6F0E040E017C0B591A59135912591E3
:10009000059107FD0CC095918591EF01F92FE82F8F
:1000A00005900D92A217B307D9F7FE0104C01D9267
:1000B000A217B307E1F7E437F40731F70E947001A4
:0800C0000C947E01F894FFCFBF
:1000C8000000000000000000000000000000000028
:1000D80034040C2464442C6C4C284818000000009C
:1000E80000040C2464442C6C4C281A141C347454DA
:1000F8003C7C5C3878949CE82CF4D4000000000028
:1001080000040C2464442C6C4C281A141C347454B9
:0F0118003C7C5C3878949CE82CF4D40000000008
:100128001F920F920FB60F9211242F933F934F9364
:100138005F936F937F938F939F93AF93BF93EF9347
:10014800FF938EE60E9489012FEF80E792E021500D
:1001580080409040E1F700C00000FF91EF91BF910F
:10016800AF919F918F917F916F915F914F913F9147
:0C0178002F910F900FBE0F901F90189554
:10018400CF93DF939B0180930E0160E171E0C9017D
:100194000E94A2018BE091E00E940F0162E171E0F4
:1001A4000E94A201C0E0D0E007C0FE01E55FFE4F5F
:1001B40080810E9489012196CA30D105B4F38FE36E
:1001C4009CE90197F1F700C00000DF91CF910895F9
:1001D4001F920F920FB60F9211248F939F93AF9398
:1001E400EF93FF938091C60080930A0190E080977B
:1001F400092E000CAA0B88539F4FAF4FFC0184912A
:10020400A7FD80818BB9FF91EF91AF919F918F9161
:0A0214000F900FBE0F901F90189579
:10021E00BC0121E030E040E050E008C0FB01E20FFD
:10022E00F31F9081490F511D2F5F3F4F273031052E
:0C023E00ACF388279927841B950B0895CA
:10024A00F8940E943A0184B1806284B98AB18C6FB1
:10025A008AB9E1E8F0E08081806C8083EFE6F0E023
:0A026A0080818062808378940895FB
:100274001092C50087E68093C400E1ECF0E088E1C9
:100284008083A2ECB0E086E08C938C9188608C93A0
:080294008081806880830895D9
:10029C000E9490012FEF87EA91E621508040904018
:1002AC00E1F700C0000089E10E9496010E949C01C8
:0602BC000E94610108959B
:1002C20062E070E089E00E94C2002FEF83EC99E0C7
:0E02D200215080409040E1F700C000000895E8
:1002E0000E9425010E944E012FEF83ED90E32150E3
:0C02F00080409040E1F700C00000FFCF0C
:1002FC00EC010E94AB010E94AA01CE010E94AC014C
:06030C00CE010E94A801D1
:0E0312009091C00095FFFCCF8093C600089527
:0C03200060E070E08CE00E94C2000895D4
:0C032C00682F70E086E00E94C200089577
:0C03380060E070E087E00E94C2000895C1
:08034400FB0190838183089501
:04034C000C9400000D
:040350000E946200A5
:0203540008950A
:02035600089508
:02035800089506
:0A035A007EFF06090000000000EF1E
:00000001FF
