S0130000427261696C6C654D6174652E73726563CF
S113000033C000004CC000004AC00000E6C100003C
S113001046C0000044C0000042C0000040C00000D0
S11300203EC000003CC00000A1C1000038C0000078
S1130030CAC1000034C0000032C0000030C000005B
S11300402EC000002CC0000076C1000028C00000B3
S113005026C0000051C1000022C0000020C00000E2
S11300601EC000001CC0000011241FBECFEFD8E04A
S1130070DEBFCDBF12E0A0E0B1E0ECE3F5E002C0EA
S113008005900D92A631B107D9F722E0A6E1B2E0BE
S113009001C01D92A233B207E1F755D04DC2B0CFD3
S11300A0ECE7F0E0808180648083EBE7F0E080811E
S11300B085608083EAE7F0E08081886A80838081BC
S11300C0806480830895239AE0EBF0E0808181646A
S11300D08083E1EBF0E080818E6080830895E1E627
S11300E0F0E0808180688083E1E8F0E080818460D2
S11300F0808388EC90E090938B0080938A00EFE6F5
S1130100F0E08081846080830895F8948AB18C6FD4
S11301108AB92298E8E6F0E0808181608083EBE68A
S1130120F0E0808184608083DADFBADFCCDFD9D16C
S11301302FEF83ED90E3215080409040E1F700C021
S1130140000078940895F8942298E8E6F0E080811D
S113015081608083EBE6F0E0808184608083D0D18D
S1130160789466246A9490E00F2EF1E88F2E912CF7
S1130170F02D0F2EFFE6EF2EF12CF02D08E610E007
S1130180CBE6D0E0772473940F2EF9E32F2EF02DD5
S11301900F2EF4E23F2EF02D512CC12C6894DD2457
S11301A0D2F80F2EF3EBAF2EB12CF02D0F2EF6E478
S11301B04F2EF02D80911702813009F06EC080918E
S11301C01602811107C0A1DF7092160266246A9498
S11301D0952DF0CF813071F720910001309101010C
S11301E0A90149555240473A514020F02039E1E0F5
S11301F03E0748F52115324008F475C06DC0611002
S113020006C08FEF0F2EF4E26F2EF02D03C08FEF98
S113021001C0872D680EF5014082FFEF29E688E1D1
S1130220F15020408040E1F700C00000F501108249
S1130230809100019091010181599140873C910581
S113024078F0972DB7CF2091000130910101215909
S11302503140273C310508F0ADCF992309F4AACFEA
S1130260629C812D1124869586958695839D6018C0
S11302701124862D90E0FC01E653FE4F20812BB91A
S1130280FC01E051FE4FE0810E2E000CFF0BE45107
S1130290FF4F808121D1952D8DCF81118BCF8091FE
S11302A01602811187CFF894259A8AB18C6F8AB986
S11302B0F4018081806C8083F70180818062808377
S11302C02298F8018081816080838881846088839A
S11302D07894709216026ECFD0920101C092000100
S11302E0913041F496CFD0920101C0920001913037
S11302F009F485CF972D5ECF1F920F920FB60F9200
S113030011242F938F939F938091780090E0909382
S1130310010180930001209179002370922B909326
S11303200101809300019F918F912F910F900FBE37
S11303300F901F9018951F920F920FB60F921124D1
S11303408F93EF93FF93E091C600E09318020E2E73
S1130350000CFF0BE55BFE4F80818BB9FF91EF91A1
S11303608F910F900FBE0F901F9018951F920F92B0
S11303700FB60F9211242F933F934F935F936F9374
S11303807F938F939F93AF93BF93EF93FF938EE6E7
S1130390CBD02FEF80E792E0215080409040E1F7EE
S11303A000C00000FF91EF91BF91AF919F918F9199
S11303B07F916F915F914F913F912F910F900FBE5D
S11303C00F901F9018951F920F920FB60F92112441
S11303D00F900FBE0F901F9018951F920F920FB69B
S11303E00F9211242F938F939F93EF93FF93EBE638
S11303F0F0E080818B7F80831A9B0BC08091160272
S1130400813039F490911702892780931702109252
S113041016022FEF83ED90E3215080409040E1F7E6
S113042000C00000EBE6F0E0808184608083FF91EF
S1130430EF919F918F912F910F900FBE0F901F906E
S11304401895FC013196AC01495F5F4F20E030E024
S11304509191290F311DE417F507D1F788279927C2
S1130460821B930B08950F931F93CF93DF93C2E0E6
S1130470D1E08B837D836E83CE01E3DF9F83888706
S11304800CE011E0899150D0C017D107D9F783EC63
S113049099E00197F1F700C00000DF91CF911F911F
S11304A00F91089560E070E08CE0DDCF0895682F2F
S11304B070E086E0D8CF089560E070E087E0D3CFA5
S11304C0089562E070E089E0CEDF8FE493EC019759
S11304D0F1F700C000000895682F70E083E0C3CFF7
S11304E00895E0DF2FE78AE196E0215080409040B4
S11304F0E1F700C0000084E1DADFDEDFE2CF089537
S11305001092C50087E68093C400E1ECF0E088E136
S11305108083A2ECB0E086E08C938C9188608C930D
S11305208081806880830895E0ECF0E0908195FFFD
S10F0530FDCF8093C6000895F894FFCF1F
S113053C00027EFF06090000000000EF000000002E
S113054C000000000000000000000000241C1D1E20
S113055C1F202122230148180000000000040C2451
S113056C64442C6C4C281A141C3474543C7C5C3835
S113057C78949CE82CF4D4000000000000020304DE
S113058C05060708090A0B0C0D0E0F101112131493
S113059C15161718191A1B000000000000000000A3
S11305AC000000000000000000000034040C24646F
S11305BC442C6C4C2848180000000000040C2464E3
S11305CC442C6C4C281A141C3474543C7C5C3878C1
S11305DC949CE82CF4D4000000000000040C246467
S11305EC442C6C4C281A141C3474543C7C5C3878A1
S11305FC949CE82CF4D400000000040C2464442CD7
S113060C6C4C2868141C3474543C7C5C3878949C72
S113061CE8B4F4D468040C2464442C6C4C284818B6
S113062C6162636465666768696A6B6C6D6E6F7032
S113063C7172737475767778797A303132333435E4
S109064C363738393B3A51
S9030000FC
