:1000000033C000004CC000004AC0000048C00000DF
:1000100046C0000044C0000042C0000040C00000D4
:100020003EC000003CC000003AC0000038C00000E4
:1000300072C0000034C0000032C0000030C00000B8
:100040002EC000002CC000002AC0000028C0000004
:1000500026C0000041C0000022C0000020C00000F7
:100060001EC000001CC0000011241FBECFEFD8E04E
:10007000DEBFCDBF11E0A0E0B1E0E4E2F2E002C0FB
:1000800005900D92AC30B107D9F721E0ACE0B1E0BA
:1000900001C01D92AC30B207E1F710D0C1C0B0CFA3
:1000A000F894A2D092D02FEF83ED90E321508040BE
:1000B0009040E1F700C0000078940895F1DF87E0F8
:1000C0007FD02AEA36EE86E991E021503040804028
:1000D0009040D9F70000F3CF1F920F920FB60F9206
:1000E00011242F938F939F938091780090E09093A9
:1000F000010180930001209179002370922B90934D
:100100000101809300019F918F912F910F900FBE5D
:100110000F901F9018951F920F920FB60F921124F7
:100120000F900FBE0F901F901895FC013196AC01F7
:10013000495F5F4F20E030E09191290F311DE417B6
:10014000F507D1F788279927821B930B08950F9302
:100150001F93CF93DF93C2E0D1E08B837D836E83C7
:10016000CE01E3DF9F8388870CE011E0899150D0B6
:10017000C017D107D9F783EC99E00197F1F700C0D8
:100180000000DF91CF911F910F91089560E070E022
:100190008CE0DDCF0895682F70E086E0D8CF089519
:1001A00060E070E087E0D3CF089562E070E089E01E
:1001B000CEDF8FE493EC0197F1F700C000000895C3
:1001C000682F70E083E0C3CF0895E0DF2FE78AE176
:1001D00096E0215080409040E1F700C0000084E1AB
:1001E000DADFDEDFE2CF08951092C50087E6809364
:1001F000C400E1ECF0E088E18083A2ECB0E086E0AE
:100200008C938C9188608C93808180688083089522
:10021000E0ECF0E0908195FFFDCF8093C60008955B
:04022000F894FFCF80
:0C02240000027EFF06090000000000EF51
:00000001FF
