:1000000033C000004CC000004AC0000040C20000E5
:1000100046C0000044C0000042C0000040C00000D4
:100020003EC000003CC00000FBC1000038C0000022
:1000300024C2000034C0000032C0000030C0000004
:100040002EC000002CC00000D0C1000028C000005D
:1000500026C00000ABC1000022C0000020C000008C
:100060001EC000001CC0000011241FBECFEFD8E04E
:10007000DEBFCDBF12E0A0E0B1E0E0E0FCE002C0F6
:1000800005900D92AC37B107D9F722E0ACE7B2E0AA
:1000900001C01D92A839B207E1F755D0AFC5B0CF66
:1000A000ECE7F0E0808180648083EBE7F0E0808122
:1000B00085608083EAE7F0E08081886A80838081C0
:1000C000806480830895239AE0EBF0E0808181646E
:1000D0008083E1EBF0E080818E6080830895E1E62B
:1000E000F0E0808180688083E1E8F0E080818460D6
:1000F000808388EC90E090938B0080938A00EFE6F9
:10010000F0E08081846080830895F8948AB18C6FD8
:100110008AB92298E8E6F0E0808181608083EBE68E
:10012000F0E0808184608083DADFBADFCCDF55D2F3
:100130002FEF83ED90E3215080409040E1F700C025
:10014000000078940895F8942298E8E6F0E0808121
:1001500081608083EBE6F0E08081846080834CD214
:1001600078941FEF712C0F2EF1E8CF2ED12CF02DAB
:100170000F2EFFE6EF2EF12CF02DCBE6D0E066241B
:1001800063940F2EF9E32F2EF02D412CA12C6894AF
:10019000BB24B2F80F2EF3EB8F2E912CF02D0F2EE7
:1001A000F6E43F2EF02D80917D0281119CC080915C
:1001B0007C02811136C084E1ECE0F1E0AFE7B2E00F
:1001C00001900D928A95E1F78FE792E031D284E1B8
:1001D000ECE0F1E0AFE7B2E001900D928A95E1F733
:1001E0008FE792E025D284E1ECE0F1E0AFE7B2E006
:1001F00001900D928A95E1F78FE792E019D284E1A0
:10020000ECE0F1E0AFE7B2E001900D928A95E1F702
:100210008FE792E00DD279DF60927C021FEF742CA1
:10022000C2CF813009F0BFCF8091000190910101D0
:100230009C0129553240273A314020F08039E1E0D5
:100240009E0730F58115924008F4A6C09DC011119B
:1002500003C08FEF14E203C08FEF01C0862D180F8B
:10026000F4013082FFEF29E648E1F15020404040A0
:10027000E1F700C00000F40110828091000190912C
:10028000010181599140873C910578F0762C8BCF04
:10029000809100019091010181599140873C910525
:1002A00008F081CF772009F47ECF129D812D112493
:1002B000869586958695F4E28F9F10191124812FDB
:1002C00090E0FC01E05DFD4F20812BB9FC01EA5A72
:1002D000FD4FE0810E2E000CFF0BEE5AFE4F808189
:1002E00077D1742C60CF813009F05DCF80917C0292
:1002F000811159CFF894259A84B18C6F84B9F60195
:100300008081806C8083F701808180628083229865
:10031000E8E6F0E080818160808388818460888362
:10032000789485E1E0E2F1E0AFE7B2E001900D9270
:100330008A95E1F78FE792E07BD185E1E5E3F1E093
:10034000AFE7B2E001900D928A95E1F78FE792E076
:100350006FD185E1E5E3F1E0AFE7B2E001900D9206
:100360008A95E1F78FE792E063D186E1EAE4F1E074
:10037000AFE7B2E001900D928A95E1F78FE792E046
:1003800057D160927C020FCFB0920101A092000180
:10039000F1E07F1209C062CFB0920101A09200018A
:1003A00021E0721609F453CF762CFDCE1F920F92E6
:1003B0000FB60F9211242F938F939F938091780003
:1003C00090E09093010180930001209179002370C7
:1003D000922B90930101809300019F918F912F9117
:1003E0000F900FBE0F901F9018951F920F920FB68F
:1003F0000F9211248F93EF93FF93E091C600E09347
:100400007E020E2E000CFF0BEF54FE4F80818BB945
:10041000FF91EF918F910F900FBE0F901F90189545
:100420001F920F920FB60F9211242F933F934F9369
:100430005F936F937F938F939F93AF93BF93EF934C
:10044000FF938EE6EDD02FEF80E792E021508040C1
:100450009040E1F700C00000FF91EF91BF91AF9194
:100460009F918F917F916F915F914F913F912F91CC
:100470000F900FBE0F901F9018951F920F920FB6FE
:100480000F9211240F900FBE0F901F9018951F927E
:100490000F920FB60F9211242F933F934F935F93B8
:1004A0006F937F938F939F93AF93BF93EF93FF933C
:1004B000EBE6F0E080818B7F80831A991FC08091EA
:1004C0007C028130D9F490917D02892780937D024E
:1004D00010927C021F928F9380E691E09F938F93FE
:1004E0008FE792E09F938F93B1D08FE792E0A0D0F7
:1004F0000F900F900F900F900F900F902FEF83EDB4
:1005000090E3215080409040E1F700C00000EBE60E
:10051000F0E0808184608083FF91EF91BF91AF9183
:100520009F918F917F916F915F914F913F912F910B
:100530000F900FBE0F901F901895FC013196AC01E3
:10054000495F5F4F20E030E09191290F311DE417A2
:10055000F507D1F788279927821B930B08950F93EE
:100560001F93CF93DF93C2E0D1E08B837D836E83B3
:10057000CE01E3DF9F8388870CE011E0899150D0A2
:10058000C017D107D9F783EC99E00197F1F700C0C4
:100590000000DF91CF911F910F91089560E070E00E
:1005A0008CE0DDCF0895682F70E086E0D8CF089505
:1005B00060E070E087E0D3CF089562E070E089E00A
:1005C000CEDF8FE493EC0197F1F700C000000895AF
:1005D000682F70E083E0C3CF0895E0DF2FE78AE162
:1005E00096E0215080409040E1F700C0000084E197
:1005F000DADFDEDFE2CF08951092C50087E6809350
:10060000C400E1ECF0E088E18083A2ECB0E086E099
:100610008C938C9188608C9380818068808308950E
:10062000E0ECF0E0908195FFFDCF8093C600089547
:10063000CF93DF93EC018881882329F02196F0DFA6
:1006400089918111FCCFDF91CF910895AEE0B0E0A8
:10065000EBE2F3E0AAC20D891E8986E08C831A833F
:1006600009838FEF9FE79E838D83AE01475E5F4FC7
:100670006F89788DCE01019608D0EF81F885E00F63
:10068000F11F10822E96E4E0ACC2ABE0B0E0EAE4E9
:10069000F3E07DC26C017B018A01FC0117821682A6
:1006A000838181FFBFC1CE0101963C01F601938198
:1006B000F70193FD859193FF81917F01882309F4D0
:1006C000ADC1853239F493FD859193FF81917F010E
:1006D000853221F4B60190E0C0D1E8CF912C212CD5
:1006E000312CFFE1F315D8F08B3279F038F48032F9
:1006F00079F08332A1F4232D20611DC08D3261F089
:10070000803369F4232D216016C0832D8260382E3A
:10071000E32DE4603E2E2AC0F32DF8601DC037FCA7
:100720002DC020ED280F2A3040F08E32B9F436FC6F
:1007300075C1232D2064322E19C036FE06C08AE012
:10074000989E200D1124922E11C0EAE02E9E200DBD
:100750001124222EF32DF0623F2E08C08C3621F496
:10076000832D8068382E02C0883641F4F70193FD4E
:10077000859193FF81917F018111B3CF982F9F7D48
:100780009554933028F40C5F1F4F9FE399830DC05D
:10079000833631F0833771F0833509F055C020C0BE
:1007A000F801808189830E5F1F4F88248394912CE8
:1007B000530112C02801F2E04F0E511CF801A08035
:1007C000B18036FE03C0692D70E002C06FEF7FEF8D
:1007D000C50138D14C018201F32DFF773F2E15C0A2
:1007E000280122E0420E511CF801A080B18036FEA3
:1007F00003C0692D70E002C06FEF7FEFC50117D114
:100800004C01F32DF0683F2E820133FC19C0822D7C
:1008100090E088169906A0F4B60180E290E01DD120
:100820002A94F5CFF50137FC859137FE81915F0160
:10083000B60190E012D121102A9421E0821A910889
:100840008114910479F7E1C0843611F0893639F5C5
:10085000F80137FE07C060817181828193810C5F4E
:100860001F4F08C060817181072E000C880B990B07
:100870000E5F1F4FF32DFF763F2E97FF09C0909517
:100880008095709561957F4F8F4F9F4FF0683F2EF9
:100890002AE030E0A3011DD1882E861844C0853798
:1008A00031F4232D2F7EB22E2AE030E025C0932D87
:1008B000997FB92E8F36C1F018F4883579F0AEC023
:1008C000803719F0883721F0A9C0E92FE061BE2EEA
:1008D000B4FE0DC0FB2DF460BF2E09C034FE0AC06B
:1008E000292F2660B22E06C028E030E005C020E1A6
:1008F00030E002C020E132E0F801B7FE07C06081BD
:100900007181828193810C5F1F4F06C0608171816C
:1009100080E090E00E5F1F4FA301DBD0882E861889
:10092000FB2DFF773F2E36FE0DC0232D2E7FA22EEE
:10093000891458F434FE0BC032FC09C0832D8E7E1E
:10094000A82E05C0B82CA32C03C0B82C01C0B92C0C
:10095000A4FE0FC0FE01E80DF11D8081803321F45B
:100960009A2D997EA92E09C0A2FE06C0B394B39415
:1009700004C08A2D867809F0B394A3FC10C0A0FEB1
:1009800006C0B21480F4280C922C9B180DC0B2142F
:1009900058F4B60180E290E060D0B394F8CFB2147E
:1009A00018F42B1802C0982C212CA4FE0FC0B601FD
:1009B00080E390E052D0A2FE16C0A1FC03C088E7FD
:1009C00090E002C088E590E0B6010CC08A2D8678E0
:1009D00051F0A1FE02C08BE201C080E2A7FC8DE2D3
:1009E000B60190E03AD0891430F4B60180E390E08B
:1009F00034D09A94F8CF8A94F301E80DF11D8081E8
:100A0000B60190E02AD08110F6CF222009F44ECE14
:100A1000B60180E290E021D02A94F7CFF6018681DA
:100A2000978102C08FEF9FEF2B96E2E1CCC0FC01D3
:100A30000590615070400110D8F7809590958E0F09
:100A40009F1F0895FC016150704001900110D8F77C
:100A5000809590958E0F9F1F08950F931F93CF93AE
:100A6000DF93FB01238121FD03C08FEF9FEF2CC09B
:100A700022FF16C0468157812481358142175307D2
:100A800044F4A081B1819D012F5F3F4F31832083CA
:100A90008C93268137812F5F3F4F3783268314C085
:100AA0008B01EC01FB010084F185E02D0995892B78
:100AB000E1F6D80116968D919C911797019617969D
:100AC0009C938E931697CE01DF91CF911F910F913A
:100AD0000895FA01AA27283051F1203181F1E894D4
:100AE0006F936E7F6E5F7F4F8F4F9F4FAF4FB1E021
:100AF0003ED0B4E03CD0670F781F891F9A1FA11D1C
:100B0000680F791F8A1F911DA11D6A0F711D811D1C
:100B1000911DA11D20D009F468943F912AE0269FE1
:100B200011243019305D3193DEF6CF010895462F40
:100B30004770405D4193B3E00FD0C9F7F6CF462F21
:100B40004F70405D4A3318F0495D31FD405241938A
:100B500002D0A9F7EACFB4E0A69597958795779547
:100B60006795BA95C9F700976105710508959B01CE
:100B7000AC010A2E06945795479537952795BA9557
:100B8000C9F7620F731F841F951FA01D08952F9230
:100B90003F924F925F926F927F928F929F92AF920D
:100BA000BF92CF92DF92EF92FF920F931F93CF935A
:100BB000DF93CDB7DEB7CA1BDB0B0FB6F894DEBFF1
:100BC0000FBECDBF09942A88398848885F846E8417
:100BD0007D848C849B84AA84B984C884DF80EE8061
:100BE000FD800C811B81AA81B981CE0FD11D0FB66A
:100BF000F894DEBF0FBECDBFED010895F894FFCF8E
:100C000000027EFF06090000000000EF52656164EB
:100C1000696E67204D6F646520696E69740D0A0006
:100C20004C6561726E696E67204D6F646520696EF8
:100C300069740D0A004C4561726E696E67204D6FD4
:100C4000646520696E69740D0A004C656172746E8A
:100C5000696E67204D6F646520696E69740D0A00C6
:100C60004D6F6465204368616E67653D2025640DA6
:100C70000A0000000000000000000000000000006A
:100C80000000241C1D1E1F202122230148180000E3
:100C9000000000040C2464442C6C4C281A141C34EE
:100CA00074543C7C5C3878949CE82CF4D4000000AC
:100CB00000000002030405060708090A0B0C0D0ECC
:100CC0000F101112131415161718191A1B00000013
:100CD0000000000000000000000000000000000014
:100CE0000034040C2464442C6C4C28481800000088
:100CF0000000040C2464442C6C4C281A141C34741A
:100D0000543C7C5C3878949CE82CF4D400000000BF
:100D10000000040C2464442C6C4C281A141C3474F9
:100D2000543C7C5C3878949CE82CF4D4000000009F
:100D3000040C2464442C6C4C2868141C3474543CFB
:100D40007C5C3878949CE8B4F4D468040C24644443
:100D50002C6C4C2848186162636465666768696A30
:100D60006B6C6D6E6F707172737475767778797A5B
:0C0D7000303132333435363738393B3AF5
:00000001FF
