:1000000033C000004CC000004AC0000048C00000DF
:1000100046C0000044C0000042C0000040C00000D4
:100020003EC000003CC000003AC0000038C00000E4
:1000300025C1000034C0000032C0000030C0000004
:100040002EC000002CC000002AC0000028C0000004
:1000500026C00000F4C0000022C0000020C0000044
:100060001EC000001CC0000011241FBECFEFD8E04E
:10007000DEBFCDBF11E0A0E0B1E0EAE8F3E002C0EE
:1000800005900D92AC3EB107D9F721E0ACEEB1E09E
:1000900001C01D92AC3EB207E1F74BD074C1B0CFA6
:1000A000ECE7F0E0808180648083EBE7F0E0808122
:1000B00085608083EAE7F0E08081886A80838081C0
:1000C000806480830895239AE0EBF0E0808181646E
:1000D0008083E1EBF0E080818E6080830895E1E62B
:1000E000F0E0808180688083E1E8F0E080818460D6
:1000F000808388EC90E090938B0080938A00EFE6F9
:10010000F0E08081846080830895F89420D18AB1E2
:100110008C6F8AB9E4DFC4DFD6DF0AD12FEF83ED1D
:1001200090E3215080409040E1F700C000007894B7
:100130000895EBDFF12C20E0D12CEE24E394C0E015
:10014000D4E0BB24BA9403EB10E00F2EF6E4CF2EDC
:10015000F02D8091000190910101AC014955524070
:10016000473A514020F08039E1E09E0740F5811583
:10017000924008F454C05AC0F11005C08B2D689409
:10018000FF24F6F803C08B2D01C08E2DF80EF80168
:10019000C082FFEF29E638E1F15020403040E1F71E
:1001A00000C00000F80110828091000190910101CF
:1001B00081599140873C910570F02E2DCACF8091D6
:1001C00000019091010181599140873C910508F609
:1001D000222309F4BECF8F2D8F7B1CF48150806CBD
:1001E0008F5FF82E94EF980F953018F4FF24FA944F
:1001F000F80E8F2D0F2C000C990BFC01E559FE4FCA
:1002000020812BB9FC01E555FE4FE0810E2E000C3C
:10021000FF0BE451FF4F808186D02D2D9ACFD093D4
:100220000101C0930001213041F4A6CFD093010118
:10023000C0930001213009F4A8CF2E2D8ACF1F9240
:100240000F920FB60F9211242F938F939F9380914B
:10025000780090E090930101809300012091790053
:100260002370922B90930101809300019F918F91B5
:100270002F910F900FBE0F901F9018951F920F9205
:100280000FB60F9211240F900FBE0F901F9018956C
:10029000FC013196AC01495F5F4F20E030E0919165
:1002A000290F311DE417F507D1F788279927821BFD
:1002B000930B08950F931F93CF93DF93C2E0D1E088
:1002C0008B837D836E83CE01E3DF9F8388870CE081
:1002D00011E0899150D0C017D107D9F783EC99E08C
:1002E0000197F1F700C00000DF91CF911F910F91AE
:1002F000089560E070E08CE0DDCF0895682F70E035
:1003000086E0D8CF089560E070E087E0D3CF08950D
:1003100062E070E089E0CEDF8FE493EC0197F1F7C3
:1003200000C000000895682F70E083E0C3CF0895F7
:10033000E0DF2FE78AE196E0215080409040E1F72E
:1003400000C0000084E1DADFDEDFE2CF0895109222
:10035000C50087E68093C400E1ECF0E088E180838B
:10036000A2ECB0E086E08C938C9188608C938081C5
:10037000806880830895E0ECF0E0908195FFFDCFE8
:0A0380008093C6000895F894FFCFA3
:10038A0000027EFF06090000000000EF00000000E6
:10039A00000000000000000000000000241C1D1ED8
:1003AA001F202122230148180000000000040C2409
:1003BA0064442C6C4C281A141C3474543C7C5C38ED
:1003CA0078949CE82CF4D400000000000002030496
:1003DA0005060708090A0B0C0D0E0F10111213144B
:1003EA0015161718191A1B0000000034040C24648F
:1003FA00442C6C4C284818040C2464442C6C4C285B
:10040A001A141C3474543C7C5C3878949CE82CF4A0
:10041A00D4040C2464442C6C4C281A141C347454D0
:10042A003C7C5C3878949CE82CF4D43031323334F8
:10043A0035363738393B3A414243444546474849BD
:10044A004A4B4C4D4E4F505152535455565758598A
:10045A005A6162636465666768696A6B6C6D6E6F20
:0C046A00707172737475767778797A007F
:00000001FF
