:1000000033C000004CC000004AC0000048C00000DF
:1000100046C0000025C2000042C0000040C00000F1
:100020003EC000003CC00000E4C1000038C0000039
:100030000DC2000034C0000032C0000030C000001B
:100040002EC000002CC00000B9C1000028C0000074
:1000500026C0000094C1000022C0000020C00000A3
:100060001EC000001CC0000011241FBECFEFD8E04E
:10007000DEBFCDBF12E0A0E0B1E0E0E0FCE002C0F6
:1000800005900D92A235B107D9F722E0A2E5B2E0C2
:1000900001C01D92AE36B207E1F74AD0AFC5B0CF6E
:1000A000ECE7F0E0808180648083EBE7F0E0808122
:1000B00085608083EAE7F0E08081886A80838081C0
:1000C000806480830895239AE0EBF0E0808181646E
:1000D0008083E1EBF0E080818E6080830895E1E62B
:1000E000F0E0808180688083E1E8F0E080818460D6
:1000F000808388EC90E090938B0080938A00EFE6F9
:10010000F0E08081846080830895F8948AB18C6FD8
:100110008AB9E5DFC5DFD7DF60D22FEF83ED90E34B
:10012000215080409040E1F700C00000789408958D
:10013000F8942298E8E6F0E080818160808384E092
:1001400080936B0059D278941FEF512C0F2EF1E859
:100150002F2E312CF02DCFE6D0E0BB24B3940F2E00
:10016000F9E37F2EF02D0F2EF4E28F2EF02DA12C2F
:10017000E12C6894FF24F2F866246A940F2EF3EBC6
:10018000CF2ED12CF02D0F2EF6E49F2EF02D809146
:10019000530281119BC080915202811136C0B5DF9C
:1001A000B092520284E1ECE0F1E0A5E5B2E001900A
:1001B0000D928A95E1F785E592E03AD284E1ECE090
:1001C000F1E0A5E5B2E001900D928A95E1F785E5B1
:1001D00092E02ED284E1ECE0F1E0A5E5B2E00190FE
:1001E0000D928A95E1F785E592E022D284E1ECE078
:1001F000F1E0A5E5B2E001900D928A95E1F785E581
:1002000092E016D21FEF5A2CC2CF813009F0BFCF37
:1002100080910001909101019C0129553240273ABB
:10022000314020F08039E1E09E0730F581159240A1
:1002300008F49BC092C0111103C0862D14E203C0C4
:10024000862D01C08B2D180FF6019082FFEF29E655
:1002500048E1F15020404040E1F700C00000F601C5
:100260001082809100019091010181599140873C59
:10027000910578F05B2C8BCF80910001909101016A
:1002800081599140873C910508F081CF552009F4B0
:100290007ECF179D812D1124869586958695889D04
:1002A00010191124812F90E0FC01EA5FFD4F20819D
:1002B0002BB9FC01E45DFD4FE0810E2E000CFF0B1D
:1002C000E85DFE4F808184D15A2C61CF813009F0E6
:1002D0005ECF8091520281115ACFF894259A84B151
:1002E0008C6F84B9F1018081806C80838881806209
:1002F0008883789484E1ECE0F1E0A5E5B2E0019038
:100300000D928A95E1F785E592E092D184E1ECE0E7
:10031000F1E0A5E5B2E001900D928A95E1F785E55F
:1003200092E086D184E1ECE0F1E0A5E5B2E0019055
:100330000D928A95E1F785E592E07AD184E1ECE0CF
:10034000F1E0A5E5B2E001900D928A95E1F785E52F
:1003500092E06ED1B09252021ACFF0920101E09277
:100360000001F1E05F1209C06DCFF0920101E0924F
:10037000000121E0521609F45ECF5B2C08CF1F92DA
:100380000F920FB60F9211242F938F939F9380910A
:10039000780090E090930101809300012091790012
:1003A0002370922B90930101809300019F918F9174
:1003B0002F910F900FBE0F901F9018951F920F92C4
:1003C0000FB60F9211248F93EF93FF93E091C60025
:1003D000E09354020E2E000CFF0BE957FE4F808174
:1003E0008BB9FF91EF918F910F900FBE0F901F90DF
:1003F00018951F920F920FB60F9211242F933F93CF
:100400004F935F936F937F938F939F93AF93BF931C
:10041000EF93FF938EE604D12FEF80E792E0215017
:1004200080409040E1F700C00000FF91EF91BF9144
:10043000AF919F918F917F916F915F914F913F917C
:100440002F910F900FBE0F901F9018951F920F9233
:100450000FB60F9211240F900FBE0F901F9018959A
:100460001F920F920FB60F9211242F933F934F9329
:100470005F936F937F938F939F93AF93BF93EF930C
:10048000FF9386E1E0E2F1E0A5E5B2E001900D9294
:100490008A95E1F785E592E0CBD086E1E0E2F1E0F4
:1004A000A5E5B2E001900D928A95E1F785E592E02D
:1004B000BFD086E1E0E2F1E0A5E5B2E001900D9267
:1004C0008A95E1F785E592E0B3D01A991CC0909126
:1004D000530281E0892780935302109252021F92A7
:1004E0008F9386E391E09F938F9385E592E09F93AE
:1004F0008F93ACD085E592E09BD00F900F900F903A
:100500000F900F900F902FEF89E698E121508040D7
:100510009040E1F700C00000FF91EF91BF91AF91D3
:100520009F918F917F916F915F914F913F912F910B
:100530000F900FBE0F901F901895FC013196AC01E3
:10054000495F5F4F20E030E09191290F311DE417A2
:10055000F507D1F788279927821B930B08950F93EE
:100560001F93CF93DF93C2E0D1E08B837D836E83B3
:10057000CE01E3DF9F8388870CE011E0899150D0A2
:10058000C017D107D9F783EC99E00197F1F700C0C4
:100590000000DF91CF911F910F91089560E070E00E
:1005A0008CE0DDCF0895682F70E086E0D8CF089505
:1005B00060E070E087E0D3CF089562E070E089E00A
:1005C000CEDF8FE493EC0197F1F700C000000895AF
:1005D000682F70E083E0C3CF0895E0DF2FE78AE162
:1005E00096E0215080409040E1F700C0000084E197
:1005F000DADFDEDFE2CF08951092C50087E6809350
:10060000C400E1ECF0E088E18083A2ECB0E086E099
:100610008C938C9188608C9380818068808308950E
:10062000E0ECF0E0908195FFFDCF8093C600089547
:10063000CF93DF93EC018881882329F02196F0DFA6
:1006400089918111FCCFDF91CF910895AEE0B0E0A8
:10065000EBE2F3E0AAC20D891E8986E08C831A833F
:1006600009838FEF9FE79E838D83AE01475E5F4FC7
:100670006F89788DCE01019608D0EF81F885E00F63
:10068000F11F10822E96E4E0ACC2ABE0B0E0EAE4E9
:10069000F3E07DC26C017B018A01FC0117821682A6
:1006A000838181FFBFC1CE0101963C01F601938198
:1006B000F70193FD859193FF81917F01882309F4D0
:1006C000ADC1853239F493FD859193FF81917F010E
:1006D000853221F4B60190E0C0D1E8CF912C212CD5
:1006E000312CFFE1F315D8F08B3279F038F48032F9
:1006F00079F08332A1F4232D20611DC08D3261F089
:10070000803369F4232D216016C0832D8260382E3A
:10071000E32DE4603E2E2AC0F32DF8601DC037FCA7
:100720002DC020ED280F2A3040F08E32B9F436FC6F
:1007300075C1232D2064322E19C036FE06C08AE012
:10074000989E200D1124922E11C0EAE02E9E200DBD
:100750001124222EF32DF0623F2E08C08C3621F496
:10076000832D8068382E02C0883641F4F70193FD4E
:10077000859193FF81917F018111B3CF982F9F7D48
:100780009554933028F40C5F1F4F9FE399830DC05D
:10079000833631F0833771F0833509F055C020C0BE
:1007A000F801808189830E5F1F4F88248394912CE8
:1007B000530112C02801F2E04F0E511CF801A08035
:1007C000B18036FE03C0692D70E002C06FEF7FEF8D
:1007D000C50138D14C018201F32DFF773F2E15C0A2
:1007E000280122E0420E511CF801A080B18036FEA3
:1007F00003C0692D70E002C06FEF7FEFC50117D114
:100800004C01F32DF0683F2E820133FC19C0822D7C
:1008100090E088169906A0F4B60180E290E01DD120
:100820002A94F5CFF50137FC859137FE81915F0160
:10083000B60190E012D121102A9421E0821A910889
:100840008114910479F7E1C0843611F0893639F5C5
:10085000F80137FE07C060817181828193810C5F4E
:100860001F4F08C060817181072E000C880B990B07
:100870000E5F1F4FF32DFF763F2E97FF09C0909517
:100880008095709561957F4F8F4F9F4FF0683F2EF9
:100890002AE030E0A3011DD1882E861844C0853798
:1008A00031F4232D2F7EB22E2AE030E025C0932D87
:1008B000997FB92E8F36C1F018F4883579F0AEC023
:1008C000803719F0883721F0A9C0E92FE061BE2EEA
:1008D000B4FE0DC0FB2DF460BF2E09C034FE0AC06B
:1008E000292F2660B22E06C028E030E005C020E1A6
:1008F00030E002C020E132E0F801B7FE07C06081BD
:100900007181828193810C5F1F4F06C0608171816C
:1009100080E090E00E5F1F4FA301DBD0882E861889
:10092000FB2DFF773F2E36FE0DC0232D2E7FA22EEE
:10093000891458F434FE0BC032FC09C0832D8E7E1E
:10094000A82E05C0B82CA32C03C0B82C01C0B92C0C
:10095000A4FE0FC0FE01E80DF11D8081803321F45B
:100960009A2D997EA92E09C0A2FE06C0B394B39415
:1009700004C08A2D867809F0B394A3FC10C0A0FEB1
:1009800006C0B21480F4280C922C9B180DC0B2142F
:1009900058F4B60180E290E060D0B394F8CFB2147E
:1009A00018F42B1802C0982C212CA4FE0FC0B601FD
:1009B00080E390E052D0A2FE16C0A1FC03C088E7FD
:1009C00090E002C088E590E0B6010CC08A2D8678E0
:1009D00051F0A1FE02C08BE201C080E2A7FC8DE2D3
:1009E000B60190E03AD0891430F4B60180E390E08B
:1009F00034D09A94F8CF8A94F301E80DF11D8081E8
:100A0000B60190E02AD08110F6CF222009F44ECE14
:100A1000B60180E290E021D02A94F7CFF6018681DA
:100A2000978102C08FEF9FEF2B96E2E1CCC0FC01D3
:100A30000590615070400110D8F7809590958E0F09
:100A40009F1F0895FC016150704001900110D8F77C
:100A5000809590958E0F9F1F08950F931F93CF93AE
:100A6000DF93FB01238121FD03C08FEF9FEF2CC09B
:100A700022FF16C0468157812481358142175307D2
:100A800044F4A081B1819D012F5F3F4F31832083CA
:100A90008C93268137812F5F3F4F3783268314C085
:100AA0008B01EC01FB010084F185E02D0995892B78
:100AB000E1F6D80116968D919C911797019617969D
:100AC0009C938E931697CE01DF91CF911F910F913A
:100AD0000895FA01AA27283051F1203181F1E894D4
:100AE0006F936E7F6E5F7F4F8F4F9F4FAF4FB1E021
:100AF0003ED0B4E03CD0670F781F891F9A1FA11D1C
:100B0000680F791F8A1F911DA11D6A0F711D811D1C
:100B1000911DA11D20D009F468943F912AE0269FE1
:100B200011243019305D3193DEF6CF010895462F40
:100B30004770405D4193B3E00FD0C9F7F6CF462F21
:100B40004F70405D4A3318F0495D31FD405241938A
:100B500002D0A9F7EACFB4E0A69597958795779547
:100B60006795BA95C9F700976105710508959B01CE
:100B7000AC010A2E06945795479537952795BA9557
:100B8000C9F7620F731F841F951FA01D08952F9230
:100B90003F924F925F926F927F928F929F92AF920D
:100BA000BF92CF92DF92EF92FF920F931F93CF935A
:100BB000DF93CDB7DEB7CA1BDB0B0FB6F894DEBFF1
:100BC0000FBECDBF09942A88398848885F846E8417
:100BD0007D848C849B84AA84B984C884DF80EE8061
:100BE000FD800C811B81AA81B981CE0FD11D0FB66A
:100BF000F894DEBF0FBECDBFED010895F894FFCF8E
:100C000000027EFF06090000000000EF52656164EB
:100C1000696E67204D6F646520696E69740D0A0006
:100C20004D6F6465204368616E67652072657175FC
:100C30006573740D0A004D6F6465204368616E67CB
:100C4000653D2025640D0A00000000000000000042
:100C50000000000000000000241C1D1E1F20212297
:100C6000230148180000000000040C2464442C6C8C
:100C70004C281A141C3474543C7C5C3878949CE8DE
:100C80002CF4D4000000000000020304050607084D
:100C9000090A0B0C0D0E0F1011121314151617184C
:100CA000191A1B00000000000000000000000000F6
:100CB0000000000000000034040C2464442C6C4C40
:100CC0002848180000000000040C2464442C6C4CDC
:100CD000281A141C3474543C7C5C3878949CE82C9E
:100CE000F4D4000000000000040C2464442C6C4C7C
:100CF000281A141C3474543C7C5C3878949CE82C7E
:100D0000F4D400000000040C2464442C6C4C2868CB
:100D1000141C3474543C7C5C3878949CE8B4F4D44F
:100D200068040C2464442C6C4C2848186162636489
:100D300065666768696A6B6C6D6E6F7071727374EB
:100D400075767778797A30313233343536373839C9
:020D50003B3A2C
:00000001FF
